:1000000096C0A5C03EC18EC1A2C0A1C0A0C059C1AA
:100010009EC09DC09CC09BC09AC099C098C097C00C
:1000200007C195C094C093C092C091C093C18FC0C6
:100030008EC08DC06364696E6F70737578585B0095
:100040000A54696D656F75742C204E6F2066656566
:10005000646261636B210A0053746F7070696E672C
:100060002061742000506F736974696F6E3A2000CC
:10007000536176696E6720706F736974696F6E2063
:10008000746F20454550524F4D2E00285265296C03
:100090006F6164696E6720706F736974696F6E2039
:1000A00066726F6D20454550524F4D2E002064659D
:1000B00067002D3E20466F7263696E6720706F7314
:1000C00020746F20000A5374657020746F6F207362
:1000D0006D616C6C2E000A54656D7065726174758B
:1000E00072653A20000A2A2A2A2A2A20476F6F645A
:1000F000206E696768742E202A2A2A2A2A000A2A72
:10010000564C4D2A000A2A41432A000A2A2A2A2A42
:100110002A2A2A0A526F746F7220636F6E74726F8C
:100120006C20627920534D3656465A0A0A00112433
:100130001FBECFEFCDBFDFE3DEBF2EE3A0E0BEE307
:1001400001C01D92A532B207E1F736D1F1CC58CFEC
:1001500010921F3EE0E0F4E084818F7D84838481EF
:100160008F7B848384818F7E8483089591E0909334
:100170001F3E1092233E8130C1F0823031F08091D9
:1001800004048061809304040895809104048064D1
:1001900080930404809104048F7D809304048091F3
:1001A00004048061809304040895809104048062B3
:1001B00080930404809104048F7B809304048091D5
:1001C00004048061809304040895DC012C912223AF
:1001D00071F030E09091040895FFFCCF2093020865
:1001E0003F5FFD01E30FF11D20812111F3CF089541
:1001F000909121112091201181E080930806809137
:1002000008068111FCCFA0911006B0911106A91B20
:10021000B10997FDB39530E05AD6DC01CB01805887
:100220009F4FAF4FBF4F892F9A2FAB2FBB270895FA
:100230001F920F920FB60F9211248F9310921F3EB0
:10024000809104048F7D80930404809104048F7B4B
:1002500080930404809104048F7E80930404809131
:1002600077068160809377068091770684FD03C0CE
:1002700081E08093213E8F910F900FBE0F901F90D1
:1002800018951F920F920FB60F9211248F93EF9330
:10029000FF9310921F3EE0E0F4E084818F7D848321
:1002A00084818F7B848384818F7E848382E08093AA
:1002B000213EFF91EF918F910F900FBE0F901F90F5
:1002C00018951F920F920FB60F9211248F939F9340
:1002D00091E09093530180911F3E8823E1F080913B
:1002E000233E8F5F8093233E8091233E843098F09D
:1002F00010921F3E809104048F7D809304048091AE
:1003000004048F7B80930404809104048F7E809387
:1003100004049093223E9F918F910F900FBE0F90F7
:100320001F9018951F920F920FB60F9211248F9362
:100330008091090481FF08C0809109048260809344
:10034000090481E08093243E8F910F900FBE0F909F
:100350001F9018951F920F920FB60F9211248F9332
:100360009F93EF93FF938091010882FD1EC08091BF
:100370000008809302088A30D9F09091203E9C3189
:1003800058F4E091203EF0E0E050F24C8083809100
:10039000203E8F5F8093203EFF91EF919F918F9140
:1003A0000F900FBE0F901F90189580910008F4CF0A
:1003B00081E080931E3EF0CFCF93DF93CDB7DEB7C1
:1003C000E597CDBFDEBF80E78093000484E0809393
:1003D00020048093170481E08093110410921F3E43
:1003E000909104049F7D90930404909104049F7B5A
:1003F00090930404909104049F7E9093040492E0EF
:10040000909388008093890022E12093A00080933C
:10041000020640E84093030628E0209305062EE1FB
:1004200020930606809300069093720680937606CA
:1004300081E280937006A09125110A2E000CBB0B5F
:10044000BC5F2DE635E04FD5DC01CB017AE0B595F8
:10045000A795979587957A95D1F7809308089093FB
:1004600009084093050880EC8093060880914101BB
:100470008111FCCF10924701809151018111FCCF75
:1004800081E080935201809151018111FCCF81E77D
:10049000809350011092203E80E090E0F2DA8C01CF
:1004A0006BE071E0CE01019624D58981882389F023
:1004B00090E02091040825FFFCCF809302089F5F05
:1004C000E1E0F0E0EC0FFD1FE90FF11D80818111EB
:1004D000F0CF1F930F9384E39BE99F938F9381E069
:1004E00090E08C0F9D1F9F938F9318D589810F905B
:1004F0000F900F900F900F900F90882389F090E04D
:100500002091040825FFFCCF809302089F5FE1E063
:10051000F0E0EC0FFD1FE90FF11D80818111F0CF9C
:100520008091040480618093040495EDE8E0F2E09A
:100530009150E040F040E1F7809104048F7E809379
:10054000040425ED88E092E0215080409040E1F7DE
:1005500080910404806180930404E5EDF8E022E0DA
:10056000E150F0402040E1F7809104048F7E8093B9
:10057000040485ED98E0E2E081509040E040E1F72E
:1005800080910404806180930404F5ED28E082E00A
:10059000F15020408040E1F7809104048F7E8093E9
:1005A00004041092243E10921E3E1092223E10929D
:1005B000213E809177068160809377067894FE01D2
:1005C000F3966F013AE5E32E3BE9F32E42E0442E29
:1005D0004EE3542E53E0652E5EE3752E61E5262E24
:1005E0006BE9362E8091213E882309F45BC0F89494
:1005F000B80180E090E04ADA8091213E813009F430
:1006000052C18091213E823009F453C199819923CE
:1006100089F020E08091040885FFFCCF90930208C8
:100620002F5FE1E0F0E0EC0FFD1FE20FF11D908184
:100630009111F0CF65EE70E0CE0101965AD4998108
:10064000992389F020E08091040885FFFCCF9093E6
:1006500002082F5FE1E0F0E0EC0FFD1FE20FF11D5B
:1006600090819111F0CFF9EA29EB85E6F150204015
:100670008040E1F700C000001092213E7894809104
:10068000223E811191C08091500081608093500082
:100690008895809150008E7F809350008091213EFC
:1006A0008111A5CF8091243E8111AAC080911E3E68
:1006B000882329F31092203EB090003EFFE3BF163E
:1006C00009F49FC144E050E06CE47BE980E09EE3E4
:1006D00017D4892B09F433C143E050E066E57BE988
:1006E00080E09EE30DD4892B09F4C4C143E050E0BF
:1006F0006DE57BE980E09EE303D4892B09F49CC17E
:1007000042E050E061E67BE980E09EE3F9D3892B8B
:1007100009F4CEC144E050E064E67BE980E09EE36A
:10072000EFD3892B09F445C344E050E069E67BE947
:1007300080E09EE3E5D3892B09F413C244E050E046
:100740006EE67BE980E09EE3DBD3892B09F4DAC116
:1007500094E6B91609F49EC2F3E7BF1609F430C255
:100760008091040885FFFCCF9FE39093020820E06E
:100770009AE08091040885FFFCCF909302082F5FD8
:10078000E22FF0E0EB5BF44690819111F2CFE0E0D4
:10079000FEE32EE111922A95E9F710921E3E809118
:1007A000223E882309F46FCF1092223E60E470E06D
:1007B000CE0101969ED39981992389F020E0809102
:1007C000040885FFFCCF909302082F5FE1E0F0E082
:1007D000EC0FFD1FE20FF11D90819111F0CF20E091
:1007E0009AE08091040885FFFCCF909302082F5F68
:1007F000E22FF0E0EB5BF44690819111F2CF43CF12
:10080000F8941092243EE6E4F0E13197F1F700C04D
:10081000FDA980910804F13009F453C081FF07C09D
:1008200080910904826080930904789428CF109203
:10083000233E015011098091040885FFFCCF9DE201
:10084000909302081092233E80911F3E882341F32B
:10085000063AEFEF1E072CF0C401019680179107AE
:10086000FCF210921F3E809104048F7D809304045B
:10087000809104048F7B80930404809104048F7E14
:100880008093040420E09AE08091040885FFFCCF67
:10089000909302082F5FE22FF0E0E75BF44690812F
:1008A0009111F2CFBDCF65E071E0CE01019621D369
:1008B000ADCE6EEF70E0CE0101961BD310928A0090
:1008C000A5CE81FFADCF1092233E0F5F1F4F8091C9
:1008D000040885FFFCCF2BE22093020880911F3E85
:1008E000882309F49DCF033C81E0180734F4C40148
:1008F0000197081719070CF493CF10921F3E8091AF
:1009000004048F7D80930404809104048F7B809382
:100910000404809104048F7E8093040420E09AE014
:100920008091040885FFFCCF909302082F5FE22F8F
:10093000F0E0E75BF44690819111F2CF71CF66ED64
:1009400070E0CE010196D5D29981992389F020E0FB
:100950008091040885FFFCCF909302082F5FE1E0AF
:10096000F0E0EC0FFD1FE20FF11D90819111F0CF2F
:10097000909121112091201181E0809308068091AF
:1009800008068111FCCFA0911006B0911106A91B99
:10099000B10997FDB39530E09AD2DC01CB018058C4
:1009A0009F4FAF4FBF4F892F9A2FAB2FBB27BC0153
:1009B000615171407F936F933F922F9281E090E05D
:1009C0008C0F9D1F9F938F93A9D299810F900F90A9
:1009D0000F900F900F900F90992309F4C8CE20E04C
:1009E0008091040885FFFCCF909302082F5FE1E01F
:1009F000F0E0EC0FFD1FE20FF11D90819111F0CF9F
:100A0000B6CE6BE071E0CE01019673D29981992345
:100A100009F4ADCE20E08091040885FFFCCF9093CF
:100A200002082F5FE1E0F0E0EC0FFD1FE20FF11D87
:100A300090819111F0CF9BCEDF92CF92FF92EF92F7
:100A40007F926F928AD20F900F900F900F900F901D
:100A50000F90892B09F48BCE8BA99CA9843091052A
:100A60000CF471C14801881A990A82E07FDBE2E048
:100A7000EDAB7DCEDF92CF92FF92EF927F926F929D
:100A80006CD20F900F900F900F900F900F90892BBA
:100A900009F46DCE8BA99CA9843091050CF4F6C1A4
:100AA0004801880E991E81E061DB91E09DAB5FCE2D
:100AB000DF92CF92FF92EF925F924F924ED20F90C1
:100AC0000F900F900F900F900F90892B09F44FCE3D
:100AD000ABA8BCA8C8010297A816B9062CF00496CA
:100AE0008A159B050CF04AC10A151B050CF4E9C1D7
:100AF000A016B1060CF03BCE82E038DB450122E0C7
:100B00002DAB35CE10921F3E809104048F7D8093D3
:100B10000404809104048F7B809304048091040476
:100B20008F7E8093040460E770E0CE010196E1D1EE
:100B30008981882389F090E02091040825FFFCCF6B
:100B4000809302089F5FE1E0F0E0EC0FFD1FE90FEA
:100B5000F11D80818111F0CFB80180E090E096D73F
:100B600006CE10921F3E809104048F7D8093040472
:100B7000809104048F7B80930404809104048F7E11
:100B8000809304046BE870E0CE010196B2D19981A4
:100B9000992389F020E08091040885FFFCCF909391
:100BA00002082F5FE1E0F0E0EC0FFD1FE20FF11D06
:100BB00090819111F0CF80E090E063D78C01D7CD88
:100BC00010921F3E809104048F7D809304048091D5
:100BD00004048F7B80930404809104048F7E8093AF
:100BE000040468E570E0CE01019683D189818823F1
:100BF00089F090E02091040825FFFCCF8093020843
:100C00009F5FE1E0F0E0EC0FFD1FE90FF11D808137
:100C10008111F0CF1F930F93FF92EF9281E090E04C
:100C20008C0F9D1F9F938F9379D189810F900F9087
:100C30000F900F900F900F90882389F090E02091F3
:100C4000040825FFFCCF809302089F5FE1E0F0E0FD
:100C5000EC0FFD1FE90FF11D80818111F0CF6DEACE
:100C600070E0CE01019645D18981882309F47FCDBA
:100C700090E02091040825FFFCCF809302089F5F3D
:100C8000E1E0F0E0EC0FFD1FE90FF11D8081811123
:100C9000F0CF6DCD65E670E0CE0101962AD1898155
:100CA000882389F090E02091040825FFFCCF8093F1
:100CB00002089F5FE1E0F0E0EC0FFD1FE90FF11D7E
:100CC00080818111F0CF1F930F93FF92EF92E1E0AB
:100CD000F0E0EC0FFD1FFF93EF9320D189810F907F
:100CE0000F900F900F900F900F90882389F090E055
:100CF0002091040825FFFCCF809302089F5FE1E06C
:100D0000F0E0EC0FFD1FE90FF11D80818111F0CFA4
:100D10006DEA70E0CE010196ECD08981882309F458
:100D200026CD90E02091040825FFFCCF8093020897
:100D30009F5FE1E0F0E0EC0FFD1FE90FF11D808106
:100D40008111F0CF14CD65EC70E0CE010196D1D0C9
:100D50008981882309F40BCD90E02091040825FFB8
:100D6000FCCF809302089F5FE1E0F0E0EC0FFD1FF5
:100D7000E90FF11D80818111F0CFF9CC65EC70E0B5
:100D8000CE010196B6D08981882309F4F0CC90E099
:100D90002091040825FFFCCF809302089F5FE1E0CB
:100DA000F0E0EC0FFD1FE90FF11D80818111F0CF04
:100DB000DECCDF92CF92FF92EF9284E09EE39F938E
:100DC0008F93CBD00F900F900F900F900F900F90AC
:100DD000892B09F4CCCC0BA91CA962EB70E0CE01E5
:100DE000019687D08981882389F090E020910408BA
:100DF00025FFFCCF809302089F5FE1E0F0E0EC0F5D
:100E0000FD1FE90FF11D80818111F0CF1F930F931A
:100E1000FF92EF9281E090E08C0F9D1F9F938F9344
:100E20007DD089810F900F900F900F900F900F90B1
:100E3000882389F090E02091040825FFFCCF80935F
:100E400002089F5FE1E0F0E0EC0FFD1FE90FF11DEC
:100E500080818111F0CF6DEA70E0CE01019649D01A
:100E60008981882309F483CC90E02091040825FF30
:100E7000FCCF809302089F5FE1E0F0E0EC0FFD1FE4
:100E8000E90FF11D80818111F0CF71CC65EC70E02C
:100E9000CE0101962ED09981992309F468CC20E0E7
:100EA0008091040885FFFCCF909302082F5FE1E05A
:100EB000F0E0EC0FFD1FE20FF11D90819111F0CFDA
:100EC00056CC81E053D94501F1E0FDAB50CCA29F57
:100ED000B001B39FC001A39F01D0B29F700D811DCF
:100EE0001124911D0895F3DFB7FF0895821B930B22
:100EF0000895FB01DC0105900D920020E1F70895B3
:100F0000FB01DC014150504030F08D91019080197F
:100F100019F40020B9F7881B990B0895AEE0B0E0F2
:100F2000E3E9F7E0E2C50D891E8986E08C83098339
:100F30001A838FEF9FE78D839E83AE01475E5F4FDD
:100F40006F89788DCE0101961ED0EF81F885E00F74
:100F5000F11F10822E96E4E0E1C5AEE0B0E0E2EBD6
:100F6000F7E0C5C585E08C838B899C8989839A834A
:100F7000AE01495E5F4F6D897E89CE01019662D3D5
:100F80002E96E2E0CDC5ABE0B0E0E8ECF7E09FC51F
:100F90006C017B018A01FC0116821782838181FF2B
:100FA000BFC1CE0101963C01F6019381F70193FD8B
:100FB000859193FF81917F01882309F4ADC185322A
:100FC00039F493FD859193FF81917F01853221F45E
:100FD000B60190E0A0D4E8CF912C212C312CFFE178
:100FE000F315D8F08B3279F038F4803279F083320F
:100FF000A1F4232D20611DC08D3261F0803369F48E
:10100000232D216016C0832D8260382EE32DE460ED
:101010003E2E2AC0F32DF8601DC037FC2DC020EDF8
:10102000280F2A3040F08E32B9F436FC75C1232DDA
:101030002064322E19C036FE06C08AE0989E200D2C
:101040001124922E11C0EAE02E9E200D1124222E92
:10105000F32DF0623F2E08C08C3621F4832D80687A
:10106000382E02C0883641F4F70193FD859193FF35
:1010700081917F018111B3CF982F9F7D955493303B
:1010800028F40C5F1F4F9FE399830DC0833631F026
:10109000833771F0833509F055C020C0F801808195
:1010A00089830E5F1F4F88248394912C530112C0B3
:1010B0002801F2E04F0E511CF801A080B18036FEED
:1010C00003C0692D70E002C06FEF7FEFC501DAD376
:1010D0004C018201F32DFF773F2E15C0280122E03D
:1010E000420E511CF801A080B18036FE03C0692D6C
:1010F00070E002C06FEF7FEFC501B9D34C01F32D53
:10110000F0683F2E820133FC19C0822D90E08816D2
:101110009906A0F4B60180E290E0FDD32A94F5CFC1
:10112000F50137FC859137FE81915F01B60190E0B2
:10113000F2D321102A9421E0821A9108811491049B
:1011400079F7E1C0843611F0893639F5F80137FEB8
:1011500007C060817181828193810C5F1F4F08C03D
:1011600060817181072E000C880B990B0E5F1F4F59
:10117000F32DFF763F2E97FF09C0909580957095CF
:1011800061957F4F8F4F9F4FF0683F2E2AE030E0F0
:10119000A30116D4882E861844C0853731F4232D38
:1011A0002F7EB22E2AE030E025C0932D997FB92EF4
:1011B0008F36C1F018F4883579F0AEC0803719F059
:1011C000883721F0A9C0E92FE061BE2EB4FE0DC022
:1011D000FB2DF460BF2E09C034FE0AC0292F266003
:1011E000B22E06C028E030E005C020E130E002C0A9
:1011F00020E132E0F801B7FE07C060817181828191
:1012000093810C5F1F4F06C06081718180E090E088
:101210000E5F1F4FA301D4D3882E8618FB2DFF77B6
:101220003F2E36FE0DC0232D2E7FA22E891458F49A
:1012300034FE0BC032FC09C0832D8E7EA82E05C063
:10124000B82CA32C03C0B82C01C0B92CA4FE0FC02D
:10125000FE01E80DF11D8081803321F49A2D997EE5
:10126000A92E09C0A2FE06C0B394B39404C08A2D6F
:10127000867809F0B394A3FC10C0A0FE06C0B21497
:1012800080F4280C922C9B180DC0B21458F4B601AF
:1012900080E290E040D3B394F8CFB21418F42B1846
:1012A00002C0982C212CA4FE0FC0B60180E390E070
:1012B00032D3A2FE16C0A1FC03C088E790E002C0B2
:1012C00088E590E0B6010CC08A2D867851F0A1FE29
:1012D00002C08BE201C080E2A7FC8DE2B60190E083
:1012E0001AD3891430F4B60180E390E014D39A94B1
:1012F000F8CF8A94F301E80DF11D8081B60190E0EA
:101300000AD38110F6CF222009F44ECEB60180E236
:1013100090E001D32A94F7CFF6018681978102C02D
:101320008FEF9FEF2B96E2E1EBC320FD09C0FC019C
:1013300023FD05C022FF02C0738362835183408373
:10134000089544FD17C046FD17C0AB01BC01DA018A
:10135000FB01AA0FBB1FEE1FFF1F1094D1F74A0F0E
:101360005B1F6E1F7F1FCB01BA01660F771F881F9F
:10137000991F09C033E001C034E0660F771F881F52
:10138000991F3150D1F7620F711D811D911D089574
:101390000F931F93CF93DF938C01C8017ED2EC0192
:1013A00097FD06C050D2892BC1F7B801CE01EFD20C
:1013B000CE01DF91CF911F910F9108958F929F924F
:1013C000AF92BF92EF92FF920F931F93CF93DF9351
:1013D0008C01D62F7A01B22E60D29C0133272B329A
:1013E000310531F02D32310559F48B2D8068B82E3E
:1013F000D15011F480E061C0C8014FD297FDFACFFF
:10140000CB2DCD7F2B2D2073F9F48033E9F4AA2462
:10141000AA94AD0E09F43EC0C8013FD297FD3AC070
:101420009C012F7D33272835310541F4C264D25009
:1014300089F1C80132D297FF07C02CC0B6FE02C0A6
:10144000C26001C0C261DA2D812C912C540120EDC3
:10145000280F283078F0C4FF03C0B80198D217C015
:101460002A3040F0C6FFF9CF2F7D3FEE320F3630E5
:10147000A0F727504C2FC501B40163DF4B015C017D
:10148000C260D15051F0C80108D297FFE0CFC1FD32
:1014900004C0B0CF812C912C5401C7FF08C0B09478
:1014A000A09490948094811C911CA11CB11C2C2FA1
:1014B000B501A401C70139DF81E0DF91CF911F9110
:1014C0000F91FF90EF90BF90AF909F908F900895F5
:1014D000A0E2B0E0EDE6FAE0FDC25C01962E7A01F2
:1014E000F9018E010F5F1F4F680180E2D8011D9244
:1014F0008A95E9F7D50113968C9080E090E0612CF5
:10150000712C30E061E070E083FC259183FE219135
:101510008F01522E211103C080E090E090C02E3543
:1015200011F4009751F1432F50E0481759073CF44C
:101530002D3559F12D3219F4772009F103C07720A8
:1015400009F468C0452D469546954695D601A40FE9
:10155000B11D452D47708B0102C0000F111F4A9528
:10156000E2F7A8015C91452B4C93651459F0561491
:1015700010F45394E7CF5A94E5CF31E004C07724B8
:10158000739401C0712C0196BFCF772019F08E8122
:1015900080628E83311103C08824839417C0F601C2
:1015A0009E012F5D3F4F8081809581932E173F07CD
:1015B000D1F7F2CFE114F10429F0D7018C93F701B0
:1015C00031967F019A94812C9920E9F0C50165D16B
:1015D00097FD17C0FC01FF2723E0F595E7952A95B5
:1015E000E1F7EC0DFD1D208130E0AC01477055277F
:1015F00002C0359527954A95E2F720FDDBCFB5016E
:10160000C6D1811089CFE114F10411F0D7011C92E9
:10161000C80115C0422F469546954695D601A40FA0
:10162000B11D422F47708B0102C0000F111F4A9558
:10163000E2F7A8015C91452B4C93622EA4CFA096B3
:10164000EFE061C2A0E0B0E0E7E2FBE043C26C0182
:10165000EB015A01FC0116821782512CF601E3803E
:10166000FE01E3FC8591E3FE8191182FEF018823B1
:1016700009F4E0C090E0E7D0892B19F0C60188DEBC
:10168000EDCF153241F4FE01E3FC1591E3FE11911B
:10169000EF01153271F4C60100D197FDC9C0412F89
:1016A00050E09C01332724173507C1F2B6016FD1F2
:1016B000C1C01A3239F4E3FC1591E3FE1191EF0138
:1016C00001E001C000E0F12C20ED210F2A3078F478
:1016D00002606F2D70E080E090E040E232DEF62E96
:1016E000FE01E3FC1591E3FE1191EF01EDCF01FF47
:1016F00003C0F11003C09EC0FF24FA94183619F0FD
:101700001C3651F010C0FE01E3FC1591E3FE11916F
:10171000EF01183641F408600460FE01E3FC159106
:10172000E3FE1191EF01112309F484C0612F70E0F1
:1017300084E390E091D0892B09F47CC000FD07C0C0
:10174000F50180809180C50102965C0102C0812C68
:10175000912C1E3649F4F6014681578160E070E015
:10176000202FC401E2DD7ACF1336A1F401FD02C0BF
:10177000FF24F394C60191D097FD5AC081149104BF
:1017800029F0F4018083C40101964C01FA94F11010
:10179000F1CF4AC01B3551F49E01A4016F2DC60143
:1017A00097DEEC01892B09F03FC039C0C601F0DD9E
:1017B00097FD3EC01F3649F128F4143621F1193641
:1017C00039F125C0133771F01537E9F020C08114C5
:1017D000910429F0F4016082C40101964C01FA944D
:1017E000FF2059F0C60159D03C0197FD06C02BD00F
:1017F000892B69F3B601C301CAD081149104A1F009
:10180000F401108211C0006203C0006101C00064D5
:10181000202FA4016F2DC601D1DD811105C0F60175
:101820008381807329F406C000FD18CF539416CF2E
:10183000552019F0852D90E002C08FEF9FEFCDB7B6
:10184000DEB7EFE060C191110C943E0D803219F0CB
:1018500089508550C8F70895FC010590061621F0BF
:101860000020D9F7C00108953197CF010895FC01F8
:101870000590615070400110D8F7809590958E0FBB
:101880009F1F0895FC016150704001900110D8F72E
:10189000809590958E0F9F1F0895CF93DF93EC0155
:1018A0002B8120FF33C026FF0AC02F7B2B838E8124
:1018B0009F8101968E839F838A8190E029C022FFB9
:1018C0000FC0E881F9818081082E000C990B0097E8
:1018D00019F420622B831AC03196E883F9830EC075
:1018E000EA85FB85099597FF09C02B81019611F0C8
:1018F00080E201C080E1822B8B8308C02E813F8172
:101900002F5F3F4F2E833F83992702C08FEF9FEFBA
:10191000DF91CF9108950F931F93CF93DF93FB0136
:10192000238121FD03C08FEF9FEF2CC022FF16C043
:1019300046815781248135814217530744F4A081A1
:10194000B1819D012F5F3F4F208331838C9326818E
:1019500037812F5F3F4F2683378314C08B01EC0103
:10196000FB010084F185E02D0995892BE1F6D80172
:1019700016968D919C911797019616968D939C9330
:101980001797CE01DF91CF911F910F910895FB0121
:10199000238120FF12C026FD10C08F3F3FEF930729
:1019A00061F082832F7D206423832681378121503B
:1019B000310926833783992708958FEF9FEF089584
:1019C000FA01AA27283051F1203181F1E8946F9370
:1019D0006E7F6E5F7F4F8F4F9F4FAF4FB1E03ED016
:1019E000B4E03CD0670F781F891F9A1FA11D680FB4
:1019F000791F8A1F911DA11D6A0F711D811D911DE7
:101A0000A11D20D009F468943F912AE0269F11245B
:101A10003019305D3193DEF6CF010895462F4770BF
:101A2000405D4193B3E00FD0C9F7F6CF462F4F701A
:101A3000405D4A3318F0495D31FD4052419302D078
:101A4000A9F7EACFB4E0A69597958795779567951E
:101A5000BA95C9F700976105710508959B01AC011E
:101A60000A2E06945795479537952795BA95C9F745
:101A7000620F731F841F951FA01D08959927882743
:101A800008950E944F0D8081918108950E94530D09
:101A9000272F0C94540D03D0808199270895FC01C1
:101AA000E050FC4E0895262FAF93BF93E0E0F0E1A5
:101AB000328131FDFDCFDC01A050BC4E2C932DE9CD
:101AC00024BF23E020830196BF91AF9108952F9208
:101AD0003F924F925F926F927F928F929F92AF92BE
:101AE000BF92CF92DF92EF92FF920F931F93CF930B
:101AF000DF93CDB7DEB7CA1BDB0BCDBFDEBF0994CA
:101B00002A88398848885F846E847D848C849B848D
:101B1000AA84B984C884DF80EE80FD800C811B819B
:101B2000AA81B981CE0FD11DCDBFDEBFED010895D1
:041B3000F894FFCF57
:101B34000A5374617274206174202564206465679B
:101B44002E0A3E20000A3E0074656D700025642054
:101B54004300722B2000256400722D2000722000A7
:0F1B640063616C20006C6F6164007361766500D3
:00000001FF
