:1000000090C09FC084C1D4C19CC09BC09AC09FC1F6
:1000100098C097C096C095C094C093C092C091C03C
:100020004DC18FC08EC08DC08CC08BC0D9C189C05E
:1000300088C087C06364696E6F70737578585B00A1
:100040000A54696D656F75742C204E6F2066656566
:10005000646261636B210A005475726E696E672079
:100060006F6666206F757470757420005475726EBB
:10007000696E67206F6E206F757470757420005301
:10008000746F7070696E672061742000506F7369BF
:1000900074696F6E3A200020646567002D3E20462B
:1000A0006F7263696E6720706F7320746F200053E6
:1000B00074657020746F6F20736D616C6C2E0053CB
:1000C00074617274696E6720726F742E2E005465AD
:1000D0006D70657261747572653A20000A2A2A2A69
:1000E00020476F6F64206E696768742E202A2A2A61
:1000F000000A2A564C4D2A000A2A41432A000A2A9D
:100100002A2A2A2A2A2A0A526F746F7220636F6E73
:1001100074726F6C20627920534D3656465A0A0A23
:10012000000011241FBECFEFCDBFDFE3DEBF2EE303
:10013000A0E0BEE301C01D92A532B207E1F782D173
:1001400015CE5ECF882341F0813069F08230C9F04E
:10015000833081F081E00895809124048160809350
:10016000240480E008958091240482608093240414
:1001700080E008958091040488608093040480E006
:1001800008958091040484608093040480E00895BD
:10019000882341F0813069F08230C9F0833081F0EA
:1001A00081E00895809124048E7F8093240480E070
:1001B0000895809124048D7F8093240480E0089525
:1001C00080910404877F8093040480E008958091E7
:1001D00004048B7F8093040480E0089510921F3EF6
:1001E000E0E0F4E084818F7D848384818F7B84834D
:1001F00084818F7E8483089591E090931F3E1092B6
:10020000233E8130C1F0823031F08091040480615E
:10021000809304040895809104048064809304040E
:10022000809104048F7D8093040480910404806194
:1002300080930404089580910404806280930404F0
:10024000809104048F7B8093040480910404806176
:10025000809304040895DC012C91222371F030E096
:100260009091040895FFFCCF209302083F5FFD01A9
:10027000E30FF11D20812111F3CF089590912111F9
:100280002091201181E08093080680910806811159
:10029000FCCFA0911006B0911106A91BB10997FDE2
:1002A000B39530E032D7DC01CB0180589F4FAF4F80
:1002B000BF4F892F9A2FAB2FBB2708951F920F9204
:1002C0000FB60F9211248F9310921F3E8091040459
:1002D0008F7D80930404809104048F7B80930404B9
:1002E000809104048F7E809304048091770681605E
:1002F000809377068091770684FD03C081E0809328
:10030000213E8F910F900FBE0F901F9018951F9256
:100310000F920FB60F9211248F93EF93FF931092C9
:100320001F3EE0E0F4E084818F7D848384818F7BB5
:10033000848384818F7E848382E08093213EFF9139
:10034000EF918F910F900FBE0F901F9018951F92F5
:100350000F920FB60F9211248F939F9391E0909379
:10036000530180911F3E8823E1F08091233E8F5FEF
:100370008093233E8091233E853098F010921F3E5B
:10038000809104048F7D80930404809104048F7B0A
:1003900080930404809104048F7E809304049093DE
:1003A000223E9F918F910F900FBE0F901F90189536
:1003B0001F920F920FB60F9211248F938091090410
:1003C00081FF08C08091090482608093090481E064
:1003D0008093243E8F910F900FBE0F901F90189521
:1003E0001F920F920FB60F9211248F939F93EF934A
:1003F000FF938091010882FD1EC0809100088093C8
:1004000002088A30D9F09091203E9C3158F4E09156
:10041000203EF0E0E050F24C80838091203E8F5FE0
:100420008093203EFF91EF919F918F910F900FBE8F
:100430000F901F90189580910008F4CF81E0809371
:100440001E3EF0CFCF93DF93CDB7DEB7E697CDBF9B
:10045000DEBF8CE78093000487E08093200484E073
:100460008093170481E08093110410920404109289
:1004700024042AE23CE29AE0215030409040E1F727
:10048000000092E0909388008093890092E190931D
:10049000A0008093020690E89093030698E0909362
:1004A00005069EE190930606809300069091211127
:1004B0009091201180930806809108068111FCCF4D
:1004C000809110069091110682E08093720681E07F
:1004D0008093760681E280937006A09125110A2E02
:1004E000000CBB0BBC5F2DE635E01BD6DC01CB015D
:1004F0007AE0B595A795979587957A95D1F78093EA
:1005000008089093090880E88093050880EC8093A0
:1005100006081092203E809141018111FCCF10927B
:100520004701809151018111FCCF81E080935201FC
:10053000809151018111FCCF89E68093500180E0C8
:1005400090E0BDDB8C016EEF70E0CE010196EFD53F
:100550008981882389F090E02091040825FFFCCF51
:10056000809302089F5FE1E0F0E0EC0FFD1FE90FD0
:10057000F11D80818111F0CF1F930F9380E79DE9DA
:100580009F938F93E1E0F0E0EC0FFD1FFF93EF935B
:10059000E3D589810F900F900F900F900F900F90DF
:1005A000882389F090E02091040825FFFCCF8093F8
:1005B00002089F5FE1E0F0E0EC0FFD1FE90FF11D85
:1005C00080818111F0CF80910404806180930404C4
:1005D000F5ED28E032E0F15020403040E1F7809125
:1005E00004048F7E8093040485ED98E0E2E081505E
:1005F0009040E040E1F7809104048061809304041E
:10060000F5ED28E032E0F15020403040E1F78091F4
:1006100004048F7E8093040485ED98E0E2E081502D
:100620009040E040E1F780910404806180930404ED
:10063000F5ED28E032E0F15020403040E1F78091C4
:1006400004048F7E8093040410921F3E1092243E77
:1006500010921E3E1092223E1092213E809177060B
:100660008160809377067894CE01C3966C01FE0179
:10067000F5963F013FE3332E43E9E42E4DE9F42E96
:1006800058EA452E5DE9552E6BE2262E8091213EDB
:10069000882309F45BC0F894B80180E090E014DB93
:1006A0008091213E813009F45AC18091213E8230EF
:1006B00009F45BC19981992389F020E080910408B5
:1006C00085FFFCCF909302082F5FE1E0F0E0EC0F94
:1006D000FD1FE20FF11D90819111F0CF6CED70E0E4
:1006E000CE01019624D59981992389F020E080914B
:1006F000040885FFFCCF909302082F5FE1E0F0E053
:10070000EC0FFD1FE20FF11D90819111F0CFF9EA7E
:1007100029EB35E6F15020403040E1F700C0000001
:100720001092213E78948091223E811194C0809154
:1007300050008160809350008895809150008E7F9A
:10074000809350008091213E8111A5CF8091243E5D
:100750008111B4C080911E3E882329F31092203E5F
:10076000B090003E3FE3B31609F4A6C144E050E068
:1007700065E87DE980E09EE3E1D4892B09F438C186
:1007800043E050E06FE87DE980E09EE3D7D4892B19
:1007900009F4E7C143E050E066E97DE980E09EE3CB
:1007A000CDD4892B09F4A3C142E050E06AE97DE988
:1007B00080E09EE3C3D4892B09F40DC244E050E0ED
:1007C0006DE97DE980E09EE3B9D4892B09F4D7C3B4
:1007D000F4E6BF1609F440C433E7B31609F44AC37C
:1007E00042E050E062EA7DE980E09EE3A7D4892BF5
:1007F00009F05DC042E050E065EA7DE982E09EE3F9
:100800009DD4892B09F485C243E050E06CEA7DE970
:1008100082E09EE393D4892B09F463C220E09AE03E
:100820008091040885FFFCCF909302082F5FE22F90
:10083000F0E0EF57F24690819111F2CFE0E0FEE355
:100840002EE111922A95E9F710921E3E8091223EE8
:10085000882309F46CCF1092223E60E470E0CE0150
:10086000019665D49981992389F020E0809104084C
:1008700085FFFCCF909302082F5FE1E0F0E0EC0FE2
:10088000FD1FE20FF11D90819111F0CF20E09AE061
:100890008091040885FFFCCF909302082F5FE22F20
:1008A000F0E0EF57F24690819111F2CF40CF809166
:1008B000040885FFFCCF30920208B0CFF894109264
:1008C000243E86E490E10197F1F700C09EA9809153
:1008D0000804913009F451C081FF07C080910904D8
:1008E00082608093090478941ECF1092233E0150B9
:1008F00011098091040885FFFCCFFDE2F093020806
:100900001092233E80911F3E882341F3063A2FEF39
:1009100012071CF0801691060CF310921F3E809176
:1009200004048F7D80930404809104048F7B809362
:100930000404809104048F7E8093040420E09AE0F4
:100940008091040885FFFCCF909302082F5FE22F6F
:10095000F0E0EF57F24690819111F2CFBFCF68EFF0
:1009600070E0CE010196E3D3A5CE61EF70E0CE0139
:100970000196DDD310928A009DCE81FFAFCF1092F9
:10098000233E0F5F1F4F8091040885FFFCCF20920C
:10099000020880911F3E882309F4A0CF033CE1E0C8
:1009A0001E0724F4081519050CF498CF10921F3E69
:1009B000809104048F7D80930404809104048F7BD4
:1009C00080930404809104048F7E8093040420E0CB
:1009D0009AE08091040885FFFCCF909302082F5F76
:1009E000E22FF0E0EF57F24690819111F2CF76CFEF
:1009F0006EEC70E0CE0101969AD39981992389F02B
:100A000020E08091040885FFFCCF909302082F5FBF
:100A1000E1E0F0E0EC0FFD1FE20FF11D908191117C
:100A2000F0CF909121112091201181E08093080650
:100A3000809108068111FCCFA0911006B09111069B
:100A4000A91BB10997FDB39530E05FD3DC01CB0161
:100A500080589F4FAF4FBF4F892F9A2FAB2FBB2787
:100A6000BC01615171407F936F938AE89DE99F9328
:100A70008F9321E030E02C0F3D1F3F932F936CD3D9
:100A800099810F900F900F900F900F900F909923D6
:100A900009F4C4CE20E08091040885FFFCCF909338
:100AA00002082F5FE1E0F0E0EC0FFD1FE20FF11D07
:100AB00090819111F0CFB2CE6EEF70E0CE01019631
:100AC00036D39981992309F4A9CE20E080910408B6
:100AD00085FFFCCF909302082F5FE1E0F0E0EC0F80
:100AE000FD1FE20FF11D90819111F0CF97CEDF92A3
:100AF000CF92FF92EF9223E03EE33F932F934BD3AD
:100B00000F900F900F900F900F900F90892B09F47A
:100B100085CE8BA99CA9843091050CF415C248019F
:100B2000881A990A82E068DB6FEB70E0CE010196CB
:100B3000FED28981882309F4B3C090E02091040893
:100B400025FFFCCF809302089F5FE1E0F0E0EC0F0F
:100B5000FD1FE90FF11D80818111F0CF92E09EAB66
:100B60005DCEDF92CF92FF92EF9283E09EE39F9360
:100B70008F9311D30F900F900F900F900F900F90B5
:100B8000892B09F44BCE8BA99CA9843091050CF4D8
:100B90006CC04801880E991E81E02EDB6FEB70E07F
:100BA000CE010196C4D29981992309F47CC020E03A
:100BB0008091040885FFFCCF909302082F5FE1E04D
:100BC000F0E0EC0FFD1FE20FF11D90819111F0CFCD
:100BD000F1E0FEAB23CEDF92CF92FF92EF9282E064
:100BE0009EE39F938F93D7D20F900F900F900F900B
:100BF0000F900F90892B09F411CEABA8BCA8C801A7
:100C00000297A816B9062CF004968A159B050CF0DD
:100C10004DC00A151B051CF1A016B1062CF482E08C
:100C2000EBDA4501F2E0FEAB6FEB70E0CE0101962E
:100C30007ED29981992309F4F1CD20E080910408B6
:100C400085FFFCCF909302082F5FE1E0F0E0EC0F0E
:100C5000FD1FE20FF11D90819111F0CFDFCD81E0FA
:100C6000CBDA4501E1E0EEABDFCF6FEA70E0CE0119
:100C700001965DD29981992309F4D0CD20E080912D
:100C8000040885FFFCCF909302082F5FE1E0F0E0BD
:100C9000EC0FFD1FE20FF11D90819111F0CFBECD41
:100CA000E2E0EEABBBCD91E09EABB8CD6FEA70E079
:100CB000CE0101963CD28981882309F4AFCD90E022
:100CC0002091040825FFFCCF809302089F5FE1E09C
:100CD000F0E0EC0FFD1FE90FF11D80818111F0CFD5
:100CE0009DCD7F926F92FF92EF92E6E0FEE3FF933D
:100CF000EF9351D20F900F900F900F900F900F9095
:100D0000892BF9F48091040885FFFCCF309202080A
:100D100085CD7F926F92FF92EF92E5E0FEE3FF9325
:100D2000EF9339D20F900F900F900F900F900F907C
:100D3000892B91F48091040885FFFCCF3092020842
:100D40006DCD8DA925DA882399F08091040885FF5F
:100D5000FCCF3092020862CD8DA9F4D9882309F422
:100D600048C08091040885FFFCCF3092020856CD20
:100D700068E570E0CE010196DAD18981882389F097
:100D800090E02091040825FFFCCF809302089F5F2C
:100D9000E1E0F0E0EC0FFD1FE90FF11D8081811112
:100DA000F0CF8DA91F928F935F924F9281E090E0D8
:100DB0008C0F9D1F9F938F93CFD189810F900F90A0
:100DC0000F900F900F900F90882309F427CD90E09B
:100DD0002091040825FFFCCF809302089F5FE1E08B
:100DE000F0E0EC0FFD1FE90FF11D80818111F0CFC4
:100DF00015CD6CE670E0CE01019699D189818823EA
:100E000089F090E02091040825FFFCCF8093020830
:100E10009F5FE1E0F0E0EC0FFD1FE90FF11D808125
:100E20008111F0CF8DA91F928F935F924F9281E035
:100E300090E08C0F9D1F9F938F938ED189810F908F
:100E40000F900F900F900F900F90882309F4E6CC2D
:100E500090E02091040825FFFCCF809302089F5F5B
:100E6000E1E0F0E0EC0FFD1FE90FF11D8081811141
:100E7000F0CFD4CC10921F3E809104048F7D8093DC
:100E80000404809104048F7B809304048091040403
:100E90008F7E809304046FE770E0CE01019647D106
:100EA0008981882389F090E02091040825FFFCCFF8
:100EB000809302089F5FE1E0F0E0EC0FFD1FE90F77
:100EC000F11D80818111F0CF1F930F93FF92EF925C
:100ED00081E090E08C0F9D1F9F938F933DD189817E
:100EE0000F900F900F900F900F900F90882389F024
:100EF00090E02091040825FFFCCF809302089F5FBB
:100F0000E1E0F0E0EC0FFD1FE90FF11D80818111A0
:100F1000F0CF67E970E0CE01019609D1898188237D
:100F200009F47CCC90E02091040825FFFCCF80934D
:100F300002089F5FE1E0F0E0EC0FFD1FE90FF11DFB
:100F400080818111F0CF6ACC6FEA70E0CE0101960A
:100F5000EED08981882309F461CC90E020910408C7
:100F600025FFFCCF809302089F5FE1E0F0E0EC0FEB
:100F7000FD1FE90FF11D80818111F0CF4FCCDF9271
:100F8000CF92FF92EF9224E03EE33F932F9303D161
:100F90000F900F900F900F900F900F90892B09F4E6
:100FA0003DCC0BA91CA96CE970E0CE010196BFD025
:100FB0008981882389F090E02091040825FFFCCFE7
:100FC000809302089F5FE1E0F0E0EC0FFD1FE90F66
:100FD000F11D80818111F0CF1F930F93FF92EF924B
:100FE000E1E0F0E0EC0FFD1FFF93EF93B5D08981B6
:100FF0000F900F900F900F900F900F90882389F013
:1010000090E02091040825FFFCCF809302089F5FA9
:10101000E1E0F0E0EC0FFD1FE90FF11D808181118F
:10102000F0CF67E970E0CE01019681D089818823F5
:1010300009F4F4CB90E02091040825FFFCCF8093C5
:1010400002089F5FE1E0F0E0EC0FFD1FE90FF11DEA
:1010500080818111F0CFE2CB6CE870E0CE01019687
:1010600066D08981882389F090E02091040825FFCB
:10107000FCCF809302089F5FE1E0F0E0EC0FFD1FE2
:10108000E90FF11D80818111F0CF1F930F93FF9223
:10109000EF9221E030E02C0F3D1F3F932F935CD067
:1010A00089810F900F900F900F900F900F908823D1
:1010B00089F090E02091040825FFFCCF809302087E
:1010C0009F5FE1E0F0E0EC0FFD1FE90FF11D808173
:1010D0008111F0CF67E970E0CE01019628D08981B7
:1010E000882309F49BCB90E02091040825FFFCCFD6
:1010F000809302089F5FE1E0F0E0EC0FFD1FE90F35
:10110000F11D80818111F0CF89CBA29FB001B39FE7
:10111000C001A39F01D0B29F700D811D1124911DAC
:101120000895F3DFB7FF0895821B930B0895FB0129
:10113000DC0105900D920020E1F70895FB01DC0130
:101140004150504030F08D910190801919F40020E9
:10115000B9F7881B990B0895AEE0B0E0E1EBF8E039
:10116000E2C50D891E8986E08C8309831A838FEF7F
:101170009FE78D839E83AE01475E5F4F6F89788DB9
:10118000CE0101961ED0EF81F885E00FF11F10828D
:101190002E96E4E0E1C5AEE0B0E0E0EDF8E0C5C5D4
:1011A00085E08C838B899C8989839A83AE01495E13
:1011B0005F4F6D897E89CE01019662D32E96E2E063
:1011C000CDC5ABE0B0E0E6EEF8E09FC56C017B0179
:1011D0008A01FC0116821782838181FFBFC1CE0183
:1011E00001963C01F6019381F70193FD859193FFF0
:1011F00081917F01882309F4ADC1853239F493FDD3
:10120000859193FF81917F01853221F4B60190E0B1
:10121000A0D4E8CF912C212C312CFFE1F315D8F08C
:101220008B3279F038F4803279F08332A1F4232DB7
:1012300020611DC08D3261F0803369F4232D21605F
:1012400016C0832D8260382EE32DE4603E2E2AC026
:10125000F32DF8601DC037FC2DC020ED280F2A307B
:1012600040F08E32B9F436FC75C1232D2064322E45
:1012700019C036FE06C08AE0989E200D1124922ED9
:1012800011C0EAE02E9E200D1124222EF32DF062D3
:101290003F2E08C08C3621F4832D8068382E02C082
:1012A000883641F4F70193FD859193FF81917F0189
:1012B0008111B3CF982F9F7D9554933028F40C5F04
:1012C0001F4F9FE399830DC0833631F0833771F050
:1012D000833509F055C020C0F801808189830E5FF5
:1012E0001F4F88248394912C530112C02801F2E0EF
:1012F0004F0E511CF801A080B18036FE03C0692D4D
:1013000070E002C06FEF7FEFC501DAD34C018201BC
:10131000F32DFF773F2E15C0280122E0420E511C0D
:10132000F801A080B18036FE03C0692D70E002C0D4
:101330006FEF7FEFC501B9D34C01F32DF0683F2E5D
:10134000820133FC19C0822D90E088169906A0F422
:10135000B60180E290E0FDD32A94F5CFF50137FC89
:10136000859137FE81915F01B60190E0F2D32110A3
:101370002A9421E0821A91088114910479F7E1C03E
:10138000843611F0893639F5F80137FE07C06081DF
:101390007181828193810C5F1F4F08C060817181D0
:1013A000072E000C880B990B0E5F1F4FF32DFF7655
:1013B0003F2E97FF09C090958095709561957F4F5E
:1013C0008F4F9F4FF0683F2E2AE030E0A30116D4E4
:1013D000882E861844C0853731F4232D2F7EB22EF7
:1013E0002AE030E025C0932D997FB92E8F36C1F0C9
:1013F00018F4883579F0AEC0803719F0883721F0BD
:10140000A9C0E92FE061BE2EB4FE0DC0FB2DF46033
:10141000BF2E09C034FE0AC0292F2660B22E06C096
:1014200028E030E005C020E130E002C020E132E0F9
:10143000F801B7FE07C060817181828193810C5FE2
:101440001F4F06C06081718180E090E00E5F1F4FEA
:10145000A301D4D3882E8618FB2DFF773F2E36FEAE
:101460000DC0232D2E7FA22E891458F434FE0BC0FC
:1014700032FC09C0832D8E7EA82E05C0B82CA32C6B
:1014800003C0B82C01C0B92CA4FE0FC0FE01E80DAA
:10149000F11D8081803321F49A2D997EA92E09C0F7
:1014A000A2FE06C0B394B39404C08A2D867809F0D6
:1014B000B394A3FC10C0A0FE06C0B21480F4280CA4
:1014C000922C9B180DC0B21458F4B60180E290E043
:1014D00040D3B394F8CFB21418F42B1802C0982C50
:1014E000212CA4FE0FC0B60180E390E032D3A2FE0F
:1014F00016C0A1FC03C088E790E002C088E590E038
:10150000B6010CC08A2D867851F0A1FE02C08BE294
:1015100001C080E2A7FC8DE2B60190E01AD38914E5
:1015200030F4B60180E390E014D39A94F8CF8A9413
:10153000F301E80DF11D8081B60190E00AD381101E
:10154000F6CF222009F44ECEB60180E290E001D31E
:101550002A94F7CFF6018681978102C08FEF9FEF23
:101560002B96E2E1EBC320FD09C0FC0123FD05C081
:1015700022FF02C07383628351834083089544FD38
:1015800017C046FD17C0AB01BC01DA01FB01AA0F71
:10159000BB1FEE1FFF1F1094D1F74A0F5B1F6E1F7A
:1015A0007F1FCB01BA01660F771F881F991F09C0E3
:1015B00033E001C034E0660F771F881F991F315058
:1015C000D1F7620F711D811D911D08950F931F9317
:1015D000CF93DF938C01C8017ED2EC0197FD06C04A
:1015E00050D2892BC1F7B801CE01EFD2CE01DF91E5
:1015F000CF911F910F9108958F929F92AF92BF92BA
:10160000EF92FF920F931F93CF93DF938C01D62F0E
:101610007A01B22E60D29C0133272B32310531F092
:101620002D32310559F48B2D8068B82ED15011F42C
:1016300080E061C0C8014FD297FDFACFCB2DCD7F9E
:101640002B2D2073F9F48033E9F4AA24AA94AD0E6B
:1016500009F43EC0C8013FD297FD3AC09C012F7DDE
:1016600033272835310541F4C264D25089F1C801CD
:1016700032D297FF07C02CC0B6FE02C0C26001C0C4
:10168000C261DA2D812C912C540120ED280F2830D5
:1016900078F0C4FF03C0B80198D217C02A3040F0D8
:1016A000C6FFF9CF2F7D3FEE320F3630A0F727501F
:1016B0004C2FC501B40163DF4B015C01C260D15006
:1016C00051F0C80108D297FFE0CFC1FD04C0B0CFF0
:1016D000812C912C5401C7FF08C0B094A094909421
:1016E0008094811C911CA11CB11C2C2FB501A4015C
:1016F000C70139DF81E0DF91CF911F910F91FF90FA
:10170000EF90BF90AF909F908F900895A0E2B0E0CF
:10171000EBE8FBE0FDC25C01962E7A01F9018E0137
:101720000F5F1F4F680180E2D8011D928A95E9F78B
:10173000D50113968C9080E090E0612C712C30E004
:1017400061E070E083FC259183FE21918F01522E90
:10175000211103C080E090E090C02E3511F4009775
:1017600051F1432F50E0481759073CF42D3559F1FA
:101770002D3219F4772009F103C0772009F468C0ED
:10178000452D469546954695D601A40FB11D452D8C
:1017900047708B0102C0000F111F4A95E2F7A801A4
:1017A0005C91452B4C93651459F0561410F45394E6
:1017B000E7CF5A94E5CF31E004C07724739401C099
:1017C000712C0196BFCF772019F08E8180628E83B5
:1017D000311103C08824839417C0F6019E012F5D48
:1017E0003F4F8081809581932E173F07D1F7F2CF2D
:1017F000E114F10429F0D7018C93F70131967F01B0
:101800009A94812C9920E9F0C50165D197FD17C004
:10181000FC01FF2723E0F595E7952A95E1F7EC0D0C
:10182000FD1D208130E0AC014770552702C0359581
:1018300027954A95E2F720FDDBCFB501C6D181108F
:1018400089CFE114F10411F0D7011C92C80115C031
:10185000422F469546954695D601A40FB11D422FBD
:1018600047708B0102C0000F111F4A95E2F7A801D3
:101870005C91452B4C93622EA4CFA096EFE061C201
:10188000A0E0B0E0E5E4FCE043C26C01EB015A01EA
:10189000FC0116821782512CF601E380FE01E3FC65
:1018A0008591E3FE8191182FEF01882309F4E0C0B0
:1018B00090E0E7D0892B19F0C60188DEEDCF153214
:1018C00041F4FE01E3FC1591E3FE1191EF011532A5
:1018D00071F4C60100D197FDC9C0412F50E09C01B1
:1018E000332724173507C1F2B6016FD1C1C01A32B0
:1018F00039F4E3FC1591E3FE1191EF0101E001C021
:1019000000E0F12C20ED210F2A3078F402606F2DD9
:1019100070E080E090E040E232DEF62EFE01E3FC73
:101920001591E3FE1191EF01EDCF01FF03C0F1101E
:1019300003C09EC0FF24FA94183619F01C3651F0EB
:1019400010C0FE01E3FC1591E3FE1191EF01183682
:1019500041F408600460FE01E3FC1591E3FE11917F
:10196000EF01112309F484C0612F70E084E390E05B
:1019700091D0892B09F47CC000FD07C0F50180805F
:101980009180C50102965C0102C0812C912C1E360B
:1019900049F4F6014681578160E070E0202FC401D0
:1019A000E2DD7ACF1336A1F401FD02C0FF24F394E7
:1019B000C60191D097FD5AC08114910429F0F40119
:1019C0008083C40101964C01FA94F110F1CF4AC012
:1019D0001B3551F49E01A4016F2DC60197DEEC0169
:1019E000892B09F03FC039C0C601F0DD97FD3EC02C
:1019F0001F3649F128F4143621F1193639F125C082
:101A0000133771F01537E9F020C08114910429F0E3
:101A1000F4016082C40101964C01FA94FF2059F050
:101A2000C60159D03C0197FD06C02BD0892B69F324
:101A3000B601C301CAD081149104A1F0F40110824F
:101A400011C0006203C0006101C00064202FA40126
:101A50006F2DC601D1DD811105C0F6018381807330
:101A600029F406C000FD18CF539416CF552019F065
:101A7000852D90E002C08FEF9FEFCDB7DEB7EFE08E
:101A800060C191110C945C0E803219F08950855020
:101A9000C8F70895FC010590061621F00020D9F73B
:101AA000C00108953197CF010895FC010590615060
:101AB00070400110D8F7809590958E0F9F1F089564
:101AC000FC016150704001900110D8F7809590950D
:101AD0008E0F9F1F0895CF93DF93EC012B8120FF82
:101AE00033C026FF0AC02F7B2B838E819F810196F6
:101AF0008E839F838A8190E029C022FF0FC0E881F6
:101B0000F9818081082E000C990B009719F420624E
:101B10002B831AC03196E883F9830EC0EA85FB85D2
:101B2000099597FF09C02B81019611F080E201C051
:101B300080E1822B8B8308C02E813F812F5F3F4F36
:101B40002E833F83992702C08FEF9FEFDF91CF91C4
:101B500008950F931F93CF93DF93FB01238121FD02
:101B600003C08FEF9FEF2CC022FF16C04681578124
:101B7000248135814217530744F4A081B1819D012E
:101B80002F5F3F4F208331838C93268137812F5FD6
:101B90003F4F2683378314C08B01EC01FB01008487
:101BA000F185E02D0995892BE1F6D80116968D91E6
:101BB0009C911797019616968D939C931797CE013B
:101BC000DF91CF911F910F910895FB01238120FF99
:101BD00012C026FD10C08F3F3FEF930761F0828354
:101BE0002F7D20642383268137812150310926836C
:101BF0003783992708958FEF9FEF0895FA01AA2759
:101C0000283051F1203181F1E8946F936E7F6E5F3F
:101C10007F4F8F4F9F4FAF4FB1E03ED0B4E03CD0ED
:101C2000670F781F891F9A1FA11D680F791F8A1FD0
:101C3000911DA11D6A0F711D811D911DA11D20D037
:101C400009F468943F912AE0269F11243019305DF1
:101C50003193DEF6CF010895462F4770405D4193E2
:101C6000B3E00FD0C9F7F6CF462F4F70405D4A332F
:101C700018F0495D31FD4052419302D0A9F7EACFF7
:101C8000B4E0A6959795879577956795BA95C9F726
:101C900000976105710508959B01AC010A2E069419
:101CA0005795479537952795BA95C9F7620F731FD2
:101CB000841F951FA01D08959927882708950E94C5
:101CC0006D0E8081918108950E94710E272F0C94D2
:101CD000720E03D0808199270895FC01E050FC4EDC
:101CE0000895262FAF93BF93E0E0F0E1328131FDFC
:101CF000FDCFDC01A050BC4E2C932DE924BF23E086
:101D000020830196BF91AF9108952F923F924F92F9
:101D10005F926F927F928F929F92AF92BF92CF927B
:101D2000DF92EF92FF920F931F93CF93DF93CDB784
:101D3000DEB7CA1BDB0BCDBFDEBF09942A8839880A
:101D400048885F846E847D848C849B84AA84B98453
:101D5000C884DF80EE80FD800C811B81AA81B9815F
:101D6000CE0FD11DCDBFDEBFED010895F894FFCF9A
:101D70000A5374617274206174202564206465675D
:101D80002E0A3E200074656D7000256420430072A9
:101D90002B2000256400722D200072200063616CEE
:101DA00020006720006F6E0025642E006F666600BD
:00000001FF
