:100000007CC08BC024C174C188C087C086C03FC17A
:1000100084C083C082C081C080C07FC07EC07DC0DC
:10002000EDC07BC07AC079C078C077C079C175C097
:1000300074C073C06364696E6F70737578585B00C9
:100040000A54696D656F75742C204E6F2066656566
:10005000646261636B210A0053746F7070696E672C
:100060002061742000506F736974696F6E3A2000CC
:1000700020646567002D3E20466F7263696E6720BD
:10008000706F7320746F20005374657020746F6FED
:1000900020736D616C6C2E005374617274696E67AD
:1000A00020726F742E2E0054656D706572617475C8
:1000B00072653A20000A2A2A2A20476F6F64206E50
:1000C000696768742E202A2A2A000A2A564C4D2A6B
:1000D000000A2A41432A000A2A2A2A2A2A2A2A0A04
:1000E000526F746F7220636F6E74726F6C206279DE
:1000F00020534D3656465A0A0A0011241FBECFEF30
:10010000CDBFDFE3DEBF2EE3A0E0BEE301C01D9262
:10011000A532B207E1F736D1E5CC72CF10921F3E7F
:10012000E0E0F4E084818F7D848384818F7B84830D
:1001300084818F7E8483089591E090931F3E109276
:10014000233E8130C1F0823031F08091040480611F
:1001500080930404089580910404806480930404CF
:10016000809104048F7D8093040480910404806155
:1001700080930404089580910404806280930404B1
:10018000809104048F7B8093040480910404806137
:10019000809304040895DC012C91222371F030E057
:1001A0009091040895FFFCCF209302083F5FFD016A
:1001B000E30FF11D20812111F3CF089590912111BA
:1001C0002091201181E0809308068091080681111A
:1001D000FCCFA0911006B0911106A91BB10997FDA3
:1001E000B39530E04ED6DC01CB0180589F4FAF4F26
:1001F000BF4F892F9A2FAB2FBB2708951F920F92C5
:100200000FB60F9211248F9310921F3E8091040419
:100210008F7D80930404809104048F7B8093040479
:10022000809104048F7E809304048091770681601E
:10023000809377068091770684FD03C081E08093E8
:10024000213E8F910F900FBE0F901F9018951F9217
:100250000F920FB60F9211248F93EF93FF9310928A
:100260001F3EE0E0F4E084818F7D848384818F7B76
:10027000848384818F7E848382E08093213EFF91FA
:10028000EF918F910F900FBE0F901F9018951F92B6
:100290000F920FB60F9211248F939F9391E090933A
:1002A000530180911F3E8823E1F08091233E8F5FB0
:1002B0008093233E8091233E853098F010921F3E1C
:1002C000809104048F7D80930404809104048F7BCB
:1002D00080930404809104048F7E8093040490939F
:1002E000223E9F918F910F900FBE0F901F901895F7
:1002F0001F920F920FB60F9211248F9380910904D1
:1003000081FF08C08091090482608093090481E024
:100310008093243E8F910F900FBE0F901F901895E1
:100320001F920F920FB60F9211248F939F93EF930A
:10033000FF938091010882FD1EC080910008809388
:1003400002088A30D9F09091203E9C3158F4E09117
:10035000203EF0E0E050F24C80838091203E8F5FA1
:100360008093203EFF91EF919F918F910F900FBE50
:100370000F901F90189580910008F4CF81E0809332
:100380001E3EF0CFCF93DF93CDB7DEB7E597CDBF5D
:10039000DEBF80E78093000484E080932004809394
:1003A000170481E08093110410921F3E9091040481
:1003B0009F7D90930404909104049F7B9093040488
:1003C000909104049F7E909304042AE23CE29AE018
:1003D000215030409040E1F7000092E09093880077
:1003E0008093890092E19093A0008093020690E8A8
:1003F0009093030698E0909305069EE1909306067D
:10040000809300069091211190912011809308060D
:10041000809108068111FCCF809110069091110601
:1004200082E08093720681E08093760681E2809379
:100430007006A09125110A2E000CBB0BBC5F2DE6A7
:1004400035E02BD5DC01CB017AE0B595A7959795E2
:1004500087957A95D1F7809308089093090880E8EA
:100460008093050880EC809306081092203E8091CE
:1004700041018111FCCF10924701809151018111FE
:10048000FCCF81E080935201809151018111FCCF1A
:1004900089E68093500180E090E0CDDA8C0167ED31
:1004A00070E0CE010196FFD48981882389F090E025
:1004B0002091040825FFFCCF809302089F5FE1E0B4
:1004C000F0E0EC0FFD1FE90FF11D80818111F0CFED
:1004D0001F930F9388EE9AE99F938F93E1E0F0E0EA
:1004E000EC0FFD1FFF93EF93F3D489810F900F90D2
:1004F0000F900F900F900F90882389F090E020913B
:10050000040825FFFCCF809302089F5FE1E0F0E044
:10051000EC0FFD1FE90FF11D80818111F0CF80915B
:100520000404806180930404F5ED28E032E0F1508A
:1005300020403040E1F7809104048F7E80930404D2
:1005400085ED98E0E2E081509040E040E1F7809155
:100550000404806180930404F5ED28E032E0F1505A
:1005600020403040E1F7809104048F7E80930404A2
:1005700085ED98E0E2E081509040E040E1F7809125
:100580000404806180930404F5ED28E032E0F1502A
:1005900020403040E1F7809104048F7E8093040472
:1005A0001092243E10921E3E1092223E1092213E46
:1005B000809177068160809377067894CE01C39608
:1005C0006C013BE0E32E3BE9F32E42E0442E4EE388
:1005D000542E53E0652E5EE3752E62E0262E6BE905
:1005E000362E8091213E882309F45BC0F894B8012F
:1005F00080E090E025DA8091213E813009F43CC111
:100600008091213E823009F43DC19981992389F07E
:1006100020E08091040885FFFCCF909302082F5FB3
:10062000E1E0F0E0EC0FFD1FE20FF11D9081911170
:10063000F0CF65EB70E0CE01019635D49981992316
:1006400089F020E08091040885FFFCCF9093020898
:100650002F5FE1E0F0E0EC0FFD1FE20FF11D908154
:100660009111F0CF99EAE9EBF5E69150E040F040C6
:10067000E1F700C000001092213E78948091223E64
:1006800081117DC0809150008160809350008895D9
:10069000809150008E7F809350008091213E811187
:1006A000A5CF8091243E811196C080911E3E882363
:1006B00029F31092203EB090003E8FE3B81609F463
:1006C00087C144E050E06DEF7AE980E09EE3F2D329
:1006D000892B09F41BC143E050E067E07BE980E02F
:1006E0009EE3E8D3892B09F4C6C143E050E06EE0F5
:1006F0007BE980E09EE3DED3892B09F484C142E0EC
:1007000050E062E17BE980E09EE3D4D3892B09F4D9
:10071000EAC144E050E065E17BE980E09EE3CAD3B2
:10072000892B09F441C394E6B91609F4E4C2F3E74E
:10073000BF1609F476C28091040885FFFCCF3FE321
:100740003093020820E09AE08091040885FFFCCFF6
:10075000909302082F5FE22FF0E0E750F54690817A
:100760009111F2CFE0E0FEE32EE111922A95E9F734
:1007700010921E3E8091223E882309F483CF10926E
:10078000223E60E470E0CE0101968DD399819923D9
:1007900089F020E08091040885FFFCCF9093020847
:1007A0002F5FE1E0F0E0EC0FFD1FE20FF11D908103
:1007B0009111F0CF20E09AE08091040885FFFCCFF2
:1007C000909302082F5FE22FF0E0E750F54690810A
:1007D0009111F2CF57CFF8941092243E86E490E125
:1007E0000197F1F700C09DA980910804913009F4A8
:1007F00051C081FF07C08091090482608093090481
:1008000078943CCF1092233E015011098091040846
:1008100085FFFCCF2DE2209302081092233E8091A9
:100820001F3E882341F3063A3FEF13071CF0801662
:1008300091060CF310921F3E809104048F7D8093EB
:100840000404809104048F7B809304048091040449
:100850008F7E8093040420E09AE08091040885FF55
:10086000FCCF909302082F5FE22FF0E0E750F546AF
:1008700090819111F2CFBFCF61ED70E0CE01019672
:1008800012D3C3CE6AEC70E0CE0101960CD3109265
:100890008A00BBCE81FFAFCF1092233E0F5F1F4F68
:1008A0008091040885FFFCCFEBE2E0930208809181
:1008B0001F3E882309F49FCF033CF1E01F0724F477
:1008C000081519050CF497CF10921F3E809104046F
:1008D0008F7D80930404809104048F7B80930404B3
:1008E000809104048F7E8093040420E09AE080913C
:1008F000040885FFFCCF909302082F5FE22FF0E001
:10090000E750F54690819111F2CF75CF67EA70E01C
:10091000CE010196C8D29981992389F020E0809177
:10092000040885FFFCCF909302082F5FE1E0F0E020
:10093000EC0FFD1FE20FF11D90819111F0CF90910E
:1009400021112091201181E08093080680910806F2
:100950008111FCCFA0911006B0911106A91BB1091D
:1009600097FDB39530E08DD2DC01CB0180589F4FCD
:10097000AF4FBF4F892F9A2FAB2FBB27BC016151BF
:1009800071407F936F933F922F92E1E0F0E0EC0F84
:10099000FD1FFF93EF939CD299810F900F900F90C2
:1009A0000F900F900F90992309F4CCCE20E0809106
:1009B000040885FFFCCF909302082F5FE1E0F0E090
:1009C000EC0FFD1FE20FF11D90819111F0CFBACE17
:1009D00067ED70E0CE01019666D29981992309F402
:1009E000B1CE20E08091040885FFFCCF90930208EF
:1009F0002F5FE1E0F0E0EC0FFD1FE20FF11D9081B1
:100A00009111F0CF9FCEDF92CF92FF92EF927F9223
:100A10006F927DD20F900F900F900F900F900F90CC
:100A2000892B09F48FCE8BA99CA9843091050CF4F5
:100A3000DDC04801881A990A82E07EDB68E970E02F
:100A4000CE01019630D28981882309F4CCC090E090
:100A50002091040825FFFCCF809302089F5FE1E00E
:100A6000F0E0EC0FFD1FE90FF11D80818111F0CF47
:100A700022E02DAB67CEDF92CF92FF92EF927F9272
:100A80006F9245D20F900F900F900F900F900F9094
:100A9000892B09F457CE8BA99CA9843091050CF4BD
:100AA00087C04801880E991E81E046DB68E970E046
:100AB000CE010196F8D19981992309F45BC020E019
:100AC0008091040885FFFCCF909302082F5FE1E03E
:100AD000F0E0EC0FFD1FE20FF11D90819111F0CFBE
:100AE000F1E0FDAB2FCEDF92CF92FF92EF925F92BB
:100AF0004F920DD20F900F900F900F900F900F907C
:100B0000892B09F41FCEABA8BCA8C8010297A81670
:100B1000B90624F004968A159B057CF50A151B0579
:100B20001CF1A016B1062CF482E006DB450182E040
:100B30008DAB68E970E0CE010196B5D1998199231A
:100B400009F400CE20E08091040885FFFCCF90934B
:100B500002082F5FE1E0F0E0EC0FFD1FE20FF11D56
:100B600090819111F0CFEECD81E0E6DA450131E0E0
:100B70003DABDFCF81E08DABE5CD68E870E0CE0125
:100B8000019691D18981882309F4DCCD90E02091F0
:100B9000040825FFFCCF809302089F5FE1E0F0E0AE
:100BA000EC0FFD1FE90FF11D80818111F0CFCACD3F
:100BB00068E870E0CE01019676D19981992309F415
:100BC000C1CD20E08091040885FFFCCF90930208FE
:100BD0002F5FE1E0F0E0EC0FFD1FE20FF11D9081CF
:100BE0009111F0CFAFCD92E09DABACCD68E870E055
:100BF000CE01019658D18981882309F4A3CD90E0D4
:100C00002091040825FFFCCF809302089F5FE1E05C
:100C1000F0E0EC0FFD1FE90FF11D80818111F0CF95
:100C200091CD10921F3E809104048F7D8093040427
:100C3000809104048F7B80930404809104048F7E50
:100C40008093040468E570E0CE0101962CD189817F
:100C5000882389F090E02091040825FFFCCF809341
:100C600002089F5FE1E0F0E0EC0FFD1FE90FF11DCE
:100C700080818111F0CF1F930F93FF92EF9221E0BB
:100C800030E02C0F3D1F3F932F9322D189810F908D
:100C90000F900F900F900F900F90882389F090E0A5
:100CA0002091040825FFFCCF809302089F5FE1E0BC
:100CB000F0E0EC0FFD1FE90FF11D80818111F0CFF5
:100CC00060E770E0CE010196EED08981882309F4B7
:100CD00039CD90E02091040825FFFCCF80930208D5
:100CE0009F5FE1E0F0E0EC0FFD1FE90FF11D808157
:100CF0008111F0CF27CD65E670E0CE010196D3D00B
:100D00008981882389F090E02091040825FFFCCF99
:100D1000809302089F5FE1E0F0E0EC0FFD1FE90F18
:100D2000F11D80818111F0CF1F930F93FF92EF92FD
:100D3000E1E0F0E0EC0FFD1FFF93EF93C9D0898154
:100D40000F900F900F900F900F900F90882389F0C5
:100D500090E02091040825FFFCCF809302089F5F5C
:100D6000E1E0F0E0EC0FFD1FE90FF11D8081811142
:100D7000F0CF60E770E0CE01019695D0898188239D
:100D800009F4E0CC90E02091040825FFFCCF80938B
:100D900002089F5FE1E0F0E0EC0FFD1FE90FF11D9D
:100DA00080818111F0CFCECCDF92CF92FF92EF9273
:100DB000E4E0FEE3FF93EF93AAD00F900F900F9023
:100DC0000F900F900F90892B09F4BCCC0BA91CA994
:100DD00065E770E0CE01019666D08981882389F0AD
:100DE00090E02091040825FFFCCF809302089F5FCC
:100DF000E1E0F0E0EC0FFD1FE90FF11D80818111B2
:100E0000F0CF1F930F93FF92EF9281E090E08C0F51
:100E10009D1F9F938F935CD089810F900F900F90AF
:100E20000F900F900F90882389F090E02091040894
:100E300025FFFCCF809302089F5FE1E0F0E0EC0F1C
:100E4000FD1FE90FF11D80818111F0CF60E770E097
:100E5000CE01019628D08981882309F473CC90E0D3
:100E60002091040825FFFCCF809302089F5FE1E0FA
:100E7000F0E0EC0FFD1FE90FF11D80818111F0CF33
:100E800061CCA29FB001B39FC001A39F01D0B29FCC
:100E9000700D811D1124911D0895F3DFB7FF089592
:100EA000821B930B0895FB01DC0105900D9200203D
:100EB000E1F70895FB01DC014150504030F08D9185
:100EC0000190801919F40020B9F7881B990B089537
:100ED000AEE0B0E0EDE6F7E0E2C50D891E8986E000
:100EE0008C8309831A838FEF9FE78D839E83AE01E6
:100EF000475E5F4F6F89788DCE0101961ED0EF81DE
:100F0000F885E00FF11F10822E96E4E0E1C5AEE017
:100F1000B0E0ECE8F7E0C5C585E08C838B899C895F
:100F200089839A83AE01495E5F4F6D897E89CE01C8
:100F3000019662D32E96E2E0CDC5ABE0B0E0E2EAE6
:100F4000F7E09FC56C017B018A01FC0116821782C4
:100F5000838181FFBFC1CE0101963C01F6019381DF
:100F6000F70193FD859193FF81917F01882309F417
:100F7000ADC1853239F493FD859193FF81917F0155
:100F8000853221F4B60190E0A0D4E8CF912C212C39
:100F9000312CFFE1F315D8F08B3279F038F4803240
:100FA00079F08332A1F4232D20611DC08D3261F0D0
:100FB000803369F4232D216016C0832D8260382E82
:100FC000E32DE4603E2E2AC0F32DF8601DC037FCEF
:100FD0002DC020ED280F2A3040F08E32B9F436FCB7
:100FE00075C1232D2064322E19C036FE06C08AE05A
:100FF000989E200D1124922E11C0EAE02E9E200D05
:101000001124222EF32DF0623F2E08C08C3621F4DD
:10101000832D8068382E02C0883641F4F70193FD95
:10102000859193FF81917F018111B3CF982F9F7D8F
:101030009554933028F40C5F1F4F9FE399830DC0A4
:10104000833631F0833771F0833509F055C020C005
:10105000F801808189830E5F1F4F88248394912C2F
:10106000530112C02801F2E04F0E511CF801A0807C
:10107000B18036FE03C0692D70E002C06FEF7FEFD4
:10108000C501DAD34C018201F32DFF773F2E15C045
:10109000280122E0420E511CF801A080B18036FEEA
:1010A00003C0692D70E002C06FEF7FEFC501B9D3B7
:1010B0004C01F32DF0683F2E820133FC19C0822DC4
:1010C00090E088169906A0F4B60180E290E0FDD386
:1010D0002A94F5CFF50137FC859137FE81915F01A8
:1010E000B60190E0F2D321102A9421E0821A9108EF
:1010F0008114910479F7E1C0843611F0893639F50D
:10110000F80137FE07C060817181828193810C5F95
:101110001F4F08C060817181072E000C880B990B4E
:101120000E5F1F4FF32DFF763F2E97FF09C090955E
:101130008095709561957F4F8F4F9F4FF0683F2E40
:101140002AE030E0A30116D4882E861844C08537E3
:1011500031F4232D2F7EB22E2AE030E025C0932DCE
:10116000997FB92E8F36C1F018F4883579F0AEC06A
:10117000803719F0883721F0A9C0E92FE061BE2E31
:10118000B4FE0DC0FB2DF460BF2E09C034FE0AC0B2
:10119000292F2660B22E06C028E030E005C020E1ED
:1011A00030E002C020E132E0F801B7FE07C0608104
:1011B0007181828193810C5F1F4F06C060817181B4
:1011C00080E090E00E5F1F4FA301D4D3882E8618D5
:1011D000FB2DFF773F2E36FE0DC0232D2E7FA22E36
:1011E000891458F434FE0BC032FC09C0832D8E7E66
:1011F000A82E05C0B82CA32C03C0B82C01C0B92C54
:10120000A4FE0FC0FE01E80DF11D8081803321F4A2
:101210009A2D997EA92E09C0A2FE06C0B394B3945C
:1012200004C08A2D867809F0B394A3FC10C0A0FEF8
:1012300006C0B21480F4280C922C9B180DC0B21476
:1012400058F4B60180E290E040D3B394F8CFB214E2
:1012500018F42B1802C0982C212CA4FE0FC0B60144
:1012600080E390E032D3A2FE16C0A1FC03C088E761
:1012700090E002C088E590E0B6010CC08A2D867827
:1012800051F0A1FE02C08BE201C080E2A7FC8DE21A
:10129000B60190E01AD3891430F4B60180E390E0EF
:1012A00014D39A94F8CF8A94F301E80DF11D80814C
:1012B000B60190E00AD38110F6CF222009F44ECE79
:1012C000B60180E290E001D32A94F7CFF60186813F
:1012D000978102C08FEF9FEF2B96E2E1EBC320FDD9
:1012E00009C0FC0123FD05C022FF02C07383628395
:1012F00051834083089544FD17C046FD17C0AB01DC
:10130000BC01DA01FB01AA0FBB1FEE1FFF1F1094E7
:10131000D1F74A0F5B1F6E1F7F1FCB01BA01660F0B
:10132000771F881F991F09C033E001C034E0660FA2
:10133000771F881F991F3150D1F7620F711D811DD2
:10134000911D08950F931F93CF93DF938C01C801D4
:101350007ED2EC0197FD06C050D2892BC1F7B801AF
:10136000CE01EFD2CE01DF91CF911F910F91089561
:101370008F929F92AF92BF92EF92FF920F931F9323
:10138000CF93DF938C01D62F7A01B22E60D29C01CD
:1013900033272B32310531F02D32310559F48B2DA5
:1013A0008068B82ED15011F480E061C0C8014FD2DE
:1013B00097FDFACFCB2DCD7F2B2D2073F9F4803301
:1013C000E9F4AA24AA94AD0E09F43EC0C8013FD2A4
:1013D00097FD3AC09C012F7D33272835310541F414
:1013E000C264D25089F1C80132D297FF07C02CC025
:1013F000B6FE02C0C26001C0C261DA2D812C912C00
:10140000540120ED280F283078F0C4FF03C0B80144
:1014100098D217C02A3040F0C6FFF9CF2F7D3FEE9B
:10142000320F3630A0F727504C2FC501B40163DFCF
:101430004B015C01C260D15051F0C80108D297FF46
:10144000E0CFC1FD04C0B0CF812C912C5401C7FF67
:1014500008C0B094A09490948094811C911CA11C0D
:10146000B11C2C2FB501A401C70139DF81E0DF9148
:10147000CF911F910F91FF90EF90BF90AF909F90F1
:101480008F900895A0E2B0E0E7E4FAE0FDC25C01CD
:10149000962E7A01F9018E010F5F1F4F680180E2DD
:1014A000D8011D928A95E9F7D50113968C9080E0BA
:1014B00090E0612C712C30E061E070E083FC2591BC
:1014C00083FE21918F01522E211103C080E090E014
:1014D00090C02E3511F4009751F1432F50E048177A
:1014E00059073CF42D3559F12D3219F4772009F1C3
:1014F00003C0772009F468C0452D4695469546956A
:10150000D601A40FB11D452D47708B0102C0000FFD
:10151000111F4A95E2F7A8015C91452B4C93651485
:1015200059F0561410F45394E7CF5A94E5CF31E0B4
:1015300004C07724739401C0712C0196BFCF77202B
:1015400019F08E8180628E83311103C088248394C8
:1015500017C0F6019E012F5D3F4F808180958193DA
:101560002E173F07D1F7F2CFE114F10429F0D7018C
:101570008C93F70131967F019A94812C9920E9F0A0
:10158000C50165D197FD17C0FC01FF2723E0F59544
:10159000E7952A95E1F7EC0DFD1D208130E0AC01C7
:1015A0004770552702C0359527954A95E2F720FDEB
:1015B000DBCFB501C6D1811089CFE114F10411F060
:1015C000D7011C92C80115C0422F469546954695F5
:1015D000D601A40FB11D422F47708B0102C0000F2E
:1015E000111F4A95E2F7A8015C91452B4C93622E9E
:1015F000A4CFA096EFE061C2A0E0B0E0E1E0FBE0A4
:1016000043C26C01EB015A01FC0116821782512C76
:10161000F601E380FE01E3FC8591E3FE8191182F42
:10162000EF01882309F4E0C090E0E7D0892B19F09E
:10163000C60188DEEDCF153241F4FE01E3FC1591C1
:10164000E3FE1191EF01153271F4C60100D197FD4F
:10165000C9C0412F50E09C01332724173507C1F240
:10166000B6016FD1C1C01A3239F4E3FC1591E3FE23
:101670001191EF0101E001C000E0F12C20ED210FFC
:101680002A3078F402606F2D70E080E090E040E254
:1016900032DEF62EFE01E3FC1591E3FE1191EF011F
:1016A000EDCF01FF03C0F11003C09EC0FF24FA94E8
:1016B000183619F01C3651F010C0FE01E3FC1591EC
:1016C000E3FE1191EF01183641F408600460FE0159
:1016D000E3FC1591E3FE1191EF01112309F484C09D
:1016E000612F70E084E390E091D0892B09F47CC0F5
:1016F00000FD07C0F50180809180C50102965C0164
:1017000002C0812C912C1E3649F4F6014681578186
:1017100060E070E0202FC401E2DD7ACF1336A1F43F
:1017200001FD02C0FF24F394C60191D097FD5AC079
:101730008114910429F0F4018083C40101964C01C5
:10174000FA94F110F1CF4AC01B3551F49E01A40167
:101750006F2DC60197DEEC01892B09F03FC039C01F
:10176000C601F0DD97FD3EC01F3649F128F414365E
:1017700021F1193639F125C0133771F01537E9F029
:1017800020C08114910429F0F4016082C401019603
:101790004C01FA94FF2059F0C60159D03C0197FD45
:1017A00006C02BD0892B69F3B601C301CAD08114BE
:1017B0009104A1F0F401108211C0006203C0006125
:1017C00001C00064202FA4016F2DC601D1DD81115D
:1017D00005C0F6018381807329F406C000FD18CF8F
:1017E000539416CF552019F0852D90E002C08FEF4D
:1017F0009FEFCDB7DEB7EFE060C191110C94180DEB
:10180000803219F089508550C8F70895FC01059081
:10181000061621F00020D9F7C00108953197CF01B5
:101820000895FC010590615070400110D8F7809533
:1018300090958E0F9F1F0895FC016150704001909C
:101840000110D8F7809590958E0F9F1F0895CF9324
:10185000DF93EC012B8120FF33C026FF0AC02F7BD2
:101860002B838E819F8101968E839F838A8190E056
:1018700029C022FF0FC0E881F9818081082E000C69
:10188000990B009719F420622B831AC03196E883D4
:10189000F9830EC0EA85FB85099597FF09C02B8166
:1018A000019611F080E201C080E1822B8B8308C099
:1018B0002E813F812F5F3F4F2E833F83992702C0A8
:1018C0008FEF9FEFDF91CF9108950F931F93CF93E9
:1018D000DF93FB01238121FD03C08FEF9FEF2CC01D
:1018E00022FF16C046815781248135814217530754
:1018F00044F4A081B1819D012F5F3F4F208331834C
:101900008C93268137812F5F3F4F2683378314C006
:101910008B01EC01FB010084F185E02D0995892BF9
:10192000E1F6D80116968D919C911797019616961F
:101930008D939C931797CE01DF91CF911F910F91BB
:101940000895FB01238120FF12C026FD10C08F3FA8
:101950003FEF930761F082832F7D206423832681EC
:1019600037812150310926833783992708958FEFD6
:101970009FEF0895FA01AA27283051F1203181F113
:10198000E8946F936E7F6E5F7F4F8F4F9F4FAF4F87
:10199000B1E03ED0B4E03CD0670F781F891F9A1F9A
:1019A000A11D680F791F8A1F911DA11D6A0F711D4E
:1019B000811D911DA11D20D009F468943F912AE05A
:1019C000269F11243019305D3193DEF6CF01089542
:1019D000462F4770405D4193B3E00FD0C9F7F6CF73
:1019E000462F4F70405D4A3318F0495D31FD40523B
:1019F000419302D0A9F7EACFB4E0A69597958795D1
:101A000077956795BA95C9F70097610571050895AF
:101A10009B01AC010A2E069457954795379527955B
:101A2000BA95C9F7620F731F841F951FA01D0895F3
:101A30009927882708950E94290D80819181089512
:101A40000E942D0D272F0C942E0D03D080819927F5
:101A50000895FC01E050FC4E0895262FAF93BF93EC
:101A6000E0E0F0E1328131FDFDCFDC01A050BC4E61
:101A70002C932DE924BF23E020830196BF91AF91E1
:101A800008952F923F924F925F926F927F928F9222
:101A90009F92AF92BF92CF92DF92EF92FF920F93FD
:101AA0001F93CF93DF93CDB7DEB7CA1BDB0BCDBF40
:101AB000DEBF09942A88398848885F846E847D84D3
:101AC0008C849B84AA84B984C884DF80EE80FD80E6
:101AD0000C811B81AA81B981CE0FD11DCDBFDEBF84
:081AE000ED010895F894FFCF19
:101AE8000A537461727420617420256420646567E8
:101AF8002E0A3E200074656D700025642043007234
:101B08002B2000256400722D200072200063616C78
:021B18002000AB
:00000001FF
